:0400000028EF3FF0B6
:107E50000001A0EF3FF0016EFA0E00F0E82EFDD712
:107E6000012EFAD71200016E0C0EBD129494CA9422
:107E700001C0CBFFCA841200026E000E036E04D054
:107E8000050E2BEC3FF0032A0350025CD8A0120031
:107E9000F7D7026E0C0EBA6E050EF66E000EF76E78
:107EA000300EF86E0800F5CF01F001A002D0036893
:107EB00002D0000E036E0350D8B402D0949201D0C9
:107EC0009396CA9402C0CBFFCA84120001C003F08B
:107ED00002C004F0060ED89003360436E82EFBD715
:107EE00003C005F004C006F006C0BEFF05C003F0E5
:107EF000D8900332D8900332300E0316BD50CF0B0A
:107F00000310BD6E120001C003F002C004F0060EA3
:107F1000D89003360436E82EFBD703C005F004C022
:107F200006F006C0BBFF05C003F0D8900332D8901E
:107F30000332300E0316BA50CF0B0310BA6E120084
:107F40004D0E136E000E106E320E0F6E000E126E7E
:107F5000AA0E116E94949492135033EC3FF0135088
:107F600049EC3FF00FC007F010C008F011C009F055
:107F700012C00AF0BDEC3FF0F5D707C00DF009C004
:107F80000EF014D007C001F008C002F066EC3FF01C
:107F900009C001F00AC002F083EC3FF0074A082A4A
:107FA0000906D8A00A06800E3CEC3FF00E500B6E7E
:107FB0000C6A08500C1802E107500B18D8B415D001
:107FC000E1D707C001F008C002F066EC3FF009C03D
:107FD00001F00AC002F083EC3FF00706D8A00806C3
:107FE000094A0A2A800E3CEC3FF00D500B6E0C6AD9
:107FF00008500C1802E107500B18D8B41200E1D752
:020000040020DA
:08000000FFFFFFFFFFFFFFFF00
:020000040030CA
:0E000000040C191EFF8180FF0FC00FE00F409F
:00000001FF
