:0400000071EF3FF06D
:107EE2000001A3EF3FF0016EFA0E00F0E82EFDD77D
:107EF200012EFAD71200016E0C0EBD129494CA9490
:107F020001C0CBFFCA841200026E000E036E04D0C1
:107F1200050E74EC3FF0032A0350025CD8A0120055
:107F2200F7D70BD007C001F008C002F0BDEC3FF05C
:107F3200074A082A030E85EC3FF007280810D8B438
:107F42001200F0D74E0E0D6E000E0A6E000E096E74
:107F52003F0E0B6EFC0E0C6E0D507CEC3FF009C018
:107F620007F00AC008F00D5092EC3FF00CC001F08F
:107F72000B50DAEC3FF0F3D701C003F002C004F07B
:107F8200060ED89003360436E82EFBD703C005F060
:107F920004C006F006C0BEFF05C003F0D89003324D
:107FA200D8900332300E0316BD50CF0B0310BD6EB6
:107FB2001200026E3F0E0212FC0E0112BD50C009E9
:107FC2000214BD6EBD500F090114BD6E02503F0A6E
:107FD200D8A402D0949412D00250BF0AD8A403D0DD
:107FE2009494959A0BD002507F0AD8B403D00228F9
:0E7FF200D8A404D09494959A959C959E120064
:020000040020DA
:08000000FFFFFFFFFFFFFFFF00
:020000040030CA
:0E000000040C1F1EFF8585FF0FC00FE00F4090
:00000001FF
