:040000006DEF3FF071
:107EDA000001A3EF3FF0016E0C0EBD129494CA94F8
:107EEA0001C0CBFFCA8412000BD007C001F008C042
:107EFA0002F0BDEC3FF0074A082A030E8AEC3FF075
:107F0A0007280810D8B41200F0D7026E000E036ECC
:107F1A0010D0000E046E09D0410E016EEE0EE82E4E
:107F2A00FED7012EFCD700D0042A630E0464F4D7CE
:107F3A00032A0250035CD8B01200EBD74E0E0D6E26
:107F4A00000E0A6E000E096E3F0E0B6EFC0E0C6ED2
:107F5A000D5070EC3FF009C007F00AC008F00D5050
:107F6A0079EC3FF00CC001F00B50DAEC3FF0F3D79C
:107F7A0001C003F002C004F0060ED890033604369E
:107F8A00E82EFBD703C005F004C006F006C0BEFF0A
:107F9A0005C003F0D8900332D8900332300E03168E
:107FAA00BD50CF0B0310BD6E1200026E3F0E0212BF
:107FBA00FC0E0112BD50C0090214BD6EBD500F095E
:107FCA000114BD6E02503F0AD8A402D0949412D074
:107FDA000250BF0AD8A403D09494959A0BD00250A9
:107FEA007F0AD8B403D00228D8A404D09494959ACE
:067FFA00959C959E12000B
:020000040020DA
:08000000FFFFFFFFFFFFFFFF00
:020000040030CA
:0E000000040C1F1EFF8585FF0FC00FE00F4090
:00000001FF
