:040000007DEF3FF061
:107EFA000001A2EF3FF0016E0C0EBD129494CA94D9
:107F0A0001C0CBFFCA841200026E000E036E10D0AD
:107F1A00000E046E09D0410E016EEE0EE82EFED759
:107F2A00012EFCD700D0042A630E0464F4D7032A76
:107F3A000250035CD8B01200EBD70968020E086E33
:107F4A00000E076E3F0E0A6EFC0E0B6E095080EC97
:107F5A003FF007C001F008C002F0BDEC3FF0010E8F
:107F6A0089EC3FF00BC001F00A50DAEC3FF0F1D790
:107F7A0001C003F002C004F0060ED890033604369E
:107F8A00E82EFBD703C005F004C006F006C0BEFF0A
:107F9A0005C003F0D8900332D8900332300E03168E
:107FAA00BD50CF0B0310BD6E1200026E3F0E0212BF
:107FBA00FC0E0112BD50C0090214BD6EBD500F095E
:107FCA000114BD6E02503F0AD8A402D0949412D074
:107FDA000250BF0AD8A403D09494959A0BD00250A9
:107FEA007F0AD8B403D00228D8A404D09494959ACE
:067FFA00959C959E12000B
:020000040020DA
:08000000FFFFFFFFFFFFFFFF00
:020000040030CA
:0E000000040C1F1EFF8580FF0FC00FE00F4095
:00000001FF
